:020000040800F2
:10000000000008242DFA01082DF7010835F7010832
:100010003DF7010845F701084DF701080000000011
:10002000000000000000000000000000A1E0020845
:1000300055F7010800000000F1E2020885A8020857
:100040007DFA01087DFA01087DFA01087DFA0108B0
:100050007DFA01087DFA01087DFA01087DFA0108A0
:100060007DFA01087DFA01087DFA010865F70108AB
:1000700079F701088DF701087DFA01087DFA01087A
:100080007DFA01087DFA01087DFA0108A1F701084F
:100090007DFA01087DFA01087DFA01087DFA010860
:1000A0007DFA01087DFA01087DFA01087DFA010850
:1000B0007DFA01087DFA01087DFA01087DFA010840
:1000C0007DFA01087DFA01087DFA01087DFA010830
:1000D0007DFA01087DFA01087DFA01087DFA010820
:1000E0007DFA01087DFA0108000000007DFA010890
:1000F0007DFA01087DFA01087DFA01087DFA010800
:100100007DFA01087DFA01087DFA01087DFA0108EF
:100110007DFA01087DFA0108B5F701087DFA0108AA
:100120007DFA01087DFA01087DFA01087DFA0108CF
:100130007DFA010805BC01087DFA01087DFA010875
:1001400000000000000000000000000000000000AF
:100150007DFA01087DFA01087DFA01087DFA01089F
:100160007DFA01087DFA01087DFA01087DFA01088F
:100170007DFA01087DFA01087DFA010800000000FF
:100180007DFA01087DFA01087DFA01087DFA01086F
:100190007DFA01087DFA01087DFA01087DFA01085F
:1001A0007DFA01087DFA01087DFA01087DFA01084F
:1001B0007DFA01087DFA01087DFA01087DFA01083F
:1001C0007DFA01087DFA01087DFA01087DFA01082F
:1001D0007DFA01087DFA01087DFA01087DFA01081F
:1001E0007DFA01087DFA01087DFA01087DFA01080F
:1001F0007DFA01087DFA01087DFA01087DFA0108FF
:100200007DFA01087DFA01087DFA01087DFA0108EE
:100210007DFA01087DFA01087DFA01087DFA0108DE
:100220007DFA01087DFA01087DFA0108000000004E
:100230007DFA01087DFA0108000000007DFA01083E
:100240007DFA01087DFA01087DFA01087DFA0108AE
:100250007DFA01087DFA01087DFA01087DFA01089E
:100260007DFA01087DFA01087DFA01087DFA01088E
:100270007DFA01087DFA01087DFA010800000000FE
:100280007DFA01087DFA01087DFA010800000000EE
:08029000000000007DFA0108E6
:1002A00010B5054C237833B9044B13B10448AFF3B0
:1002B00000800123237010BD580B002400000000B3
:1002C000704B030808B5034B1BB103490348AFF358
:1002D000008008BD000000005C0B0024704B030888
:1002E00010F8012B11F8013B012A28BF9A42F7D0E0
:1002F000D01A70470000000000000000000000005D
:1003000001F0FF01102A2BDB10F0070F08D010F8C6
:10031000013B013A8B422DD010F0070F42B3F6D1CA
:10032000F0B441EA012141EA014122F007047FF0E3
:1003300000070023F0E80256083C85EA010586EA3A
:10034000010685FA47F5A3FA87F586FA47F6A5FA76
:1003500087F68EB9EED1F0BC01F0FF0102F0070282
:1003600032B110F8013B013A83EA010313B1F8D12D
:100370000020704701387047002D06BF354603380E
:10038000073815F0010F07D1013015F4807F02BF47
:10039000013015F4C03F0130F0BC0138704700BF98
:1003A000034613F8012B002AFBD1181A01387047B5
:1003B00081F0004102E000BF83F0004330B54FEA16
:1003C00041044FEA430594EA050F08BF90EA020F83
:1003D0001FBF54EA000C55EA020C7FEA645C7FEA16
:1003E000655C00F0E2804FEA5454D4EB5555B8BF39
:1003F0006D420CDD2C4480EA020281EA030382EAAA
:10040000000083EA010180EA020281EA0303362D3B
:1004100088BF30BD11F0004F4FEA01314FF4801C0E
:100420004CEA113102D0404261EB410113F0004F20
:100430004FEA03334CEA133302D0524263EB4303D7
:1004400094EA050F00F0A780A4F10104D5F1200E75
:100450000DDB02FA0EFC22FA05F2801841F10001D0
:1004600003FA0EF2801843FA05F359410EE0A5F1A4
:1004700020050EF1200E012A03FA0EFC28BF4CF0D5
:10048000020C43FA05F3C01851EBE37101F000458B
:1004900007D54FF0000EDCF1000C7EEB00006EEB98
:1004A0000101B1F5801F1BD3B1F5001F0CD3490822
:1004B0005FEA30004FEA3C0C04F101044FEA445279
:1004C00012F5800F80F09A80BCF1004F08BF5FEA00
:1004D000500C50F1000041EB045141EA050130BDE0
:1004E0005FEA4C0C404141EB0101013C28BFB1F5F2
:1004F000801FE9D291F0000F04BF01460020B1FA3D
:1005000081F308BF2033A3F10B03B3F120020CDA0F
:100510000C3208DD02F1140CC2F10C0201FA0CF0ED
:1005200021FA02F10CE002F11402D8BFC2F1200C52
:1005300001FA02F120FA0CFCDCBF41EA0C01904008
:10054000E41AA2BF01EB0451294330BD6FEA040451
:100550001F3C1CDA0C340EDC04F11404C4F120023C
:1005600020FA04F001FA02F340EA030021FA04F34E
:1005700045EA030130BDC4F10C04C4F1200220FAA5
:1005800002F001FA04F340EA0300294630BD21FAE3
:1005900004F0294630BD94F0000F83F4801306BFA9
:1005A00081F480110134013D4EE77FEA645C18BF9D
:1005B0007FEA655C29D094EA050F08BF90EA020F34
:1005C00005D054EA000C04BF1946104630BD91EA2C
:1005D000030F1EBF0021002030BD5FEA545C05D12F
:1005E0004000494128BF41F0004130BD14F580046E
:1005F0003CBF01F5801130BD01F0004545F0FE41E2
:1006000041F470014FF0000030BD7FEA645C1ABF16
:10061000194610467FEA655C1CBF0B46024650EA4D
:10062000013406BF52EA033591EA030F41F4002179
:1006300030BD00BF90F0000F04BF0021704730B5FF
:100640004FF4806404F132044FF000054FF00001D4
:1006500050E700BF90F0000F04BF0021704730B595
:100660004FF4806404F1320410F0004548BF40426A
:100670004FF000013EE700BF42004FEAE2014FEABF
:1006800031014FEA02701FBF12F07F4393F07F4F9A
:1006900081F06051704732F07F4208BF704793F09D
:1006A0007F4F04BF41F40021704730B54FF46074B0
:1006B00001F0004521F000411CE700BF50EA0102B3
:1006C00008BF704730B54FF000050AE050EA01025C
:1006D00008BF704730B511F0004502D5404261EBCC
:1006E00041014FF4806404F132045FEA915C3FF40D
:1006F000D8AE4FF003025FEADC0C18BF03325FEAAA
:10070000DC0C18BF033202EBDC02C2F1200300FA5A
:1007100003FC20FA02F001FA03FE40EA0E0021FA7F
:1007200002F11444BDE600BF7BB972B90029BEBF17
:1007300000204FF0004106E008BF00281CBF6FF00A
:1007400000414FF0FF3000F0EDB9ADF1080C6DE95C
:1007500004CE002909DB002B1ADB00F085F8DDF858
:1007600004E0DDE9022304B07047404261EB41013F
:10077000002B1BDB00F078F8DDF804E0DDE9022354
:1007800004B0404261EB4101524263EB43037047C6
:10079000524263EB430300F067F8DDF804E0DDE963
:1007A000022304B0404261EB41017047524263EBC7
:1007B000430300F059F8DDF804E0DDE9022304B05A
:1007C000524263EB4303704753B94AB9002908BF4B
:1007D00000281CBF4FF0FF314FF0FF3000F0A2B9EE
:1007E000ADF1080C6DE904CE00F03EF8DDF804E050
:1007F000DDE9022304B0704708B502460B4643EC1E
:10080000172BB5EEC07BF1EE10FA03D4BDE808401B
:1008100000F00AB8B1EE477B51EC170B00F004F87A
:10082000404261EB410108BD9FED0B6B41EC170BA2
:100830009FED0B5B27EE066BBCEEC66BB8EE464B2E
:10084000A4EE457BFCEEC77B16EE101A17EE900A5D
:10085000704700BFAFF30080000000000000F03DD3
:10086000000000000000F0412DE9F047089D0C4613
:10087000002B4ED194468C458646B2FA82F262D95C
:100880004AB1C2F12003914020FA03F30CFA02FCB2
:10089000194300FA02FE4FEA1C471FFA8CF6B1FB1F
:1008A000F7F44FEA1E4307FB141143EA014304FB2C
:1008B00006F199420AD91CEB030304F1FF3080F0E2
:1008C0001281994240F20F81023C6344591A1FFA87
:1008D0008EF3B1FBF7F007FB101143EA014300FB75
:1008E00006F69E420AD91CEB030300F1FF3180F0AB
:1008F000FC809E4240F2F980634402389B1B40EA30
:10090000044000211DB1D3400022C5E90032BDE8FA
:10091000F0878B4205D90DB1C5E9000100210846D9
:10092000F5E7B3FA83F1002946D1A34202D39042FE
:10093000C0F0F080861A64EB03030120002DE6D09E
:10094000C5E90063E3E7002A40F09080A1EB0C04C6
:100950004FEA1C481FFA8CF70121B4FBF8F64FEA66
:100960001E4308FB164443EA044307FB06F0984283
:1009700008D91CEB030306F1FF3402D2984200F2BF
:10098000CD8026461C1A1FFA8EF3B4FBF8F008FB44
:10099000104443EA044300FB07F79F4208D91CEBCD
:1009A000030300F1FF3402D29F4200F2B0802046E0
:1009B000DB1B40EA0640A5E7C1F120068B4022FA86
:1009C00006F71F4320FA06FC04FA01F343EA0C037E
:1009D000F44000FA01F8380C4FEA1349B4FBF0FE7A
:1009E0001FFA87FC00FB1E4449EA04440EFB0CF985
:1009F000A14502FA01F20AD93C190EF1FF3A80F042
:100A00008480A14540F28180AEF1020E3C44A4EB0B
:100A100009041FFA83F9B4FBF0F300FB134449EA1D
:100A2000044403FB0CFCA44507D93C1903F1FF3037
:100A300067D2A44565D9023B3C4443EA0E40A0FB83
:100A40000293A4EB0C049C42CE469C4651D34ED05C
:100A500055B1B8EB0E0364EB0C0404FA06F6CB4078
:100A60001E43CC40C5E90064002150E7C2F12003D9
:100A700020FA03F10CFA02FC24FA03F394400C432D
:100A80004FEA1C4800FA02FE1FFA8CF7B3FBF8F09D
:100A900008FB1031230C43EA014300FB07F19942A4
:100AA00008D91CEB030300F1FF362CD299422AD956
:100AB000023863445B1AA4B2B3FBF8F108FB1133AC
:100AC00044EA034401FB07F3A34208D91CEB0404E6
:100AD00001F1FF3613D2A34211D902396444E41A5A
:100AE00041EA004139E70446F0E6084606E7C84512
:100AF000AED2B9EB020E63EB070C0138A8E7314622
:100B0000EDE7034699E73046D4E7D6467FE76344EE
:100B100002384DE70646234608460FE7023E634487
:100B200030E700BF704700BF80B582B000AF78608B
:100B30003960084A7B681360064A3B685360064B7D
:100B40001B68022118462AF0D5FA00BF0837BD46B7
:100B500080BD00BFD40B0024740B002480B582B08C
:100B600000AF78603960084A7B681360064A3B68CA
:100B70005360064B1B68012118462AF0BBFA00BFE0
:100B80000837BD4680BD00BFDC0B0024740B002479
:100B900080B400AF00BFBD465DF8047B7047000025
:100BA00080B500AF064B1868054B5B681968044BAD
:100BB0005B685A6801231AF085F800BF80BD00BF4A
:100BC000D40B002480B400AF034B03221A7100BF82
:100BD000BD465DF8047B7047C40B002480B400AFB1
:100BE000034B04221A7100BFBD465DF8047B7047B9
:100BF000C40B002480B400AF034B05221A7100BF60
:100C0000BD465DF8047B7047C40B002480B400AF80
:100C1000034B06221A7100BFBD465DF8047B704786
:100C2000C40B002480B400AF034B01221A7100BF33
:100C3000BD465DF8047B7047C40B002480B400AF50
:100C4000034B02221A7100BFBD465DF8047B70475A
:100C5000C40B002480B400AF034B01221A7100BF03
:100C6000BD465DF8047B7047C40B002480B400AF20
:100C7000034B02221A7100BFBD465DF8047B70472A
:100C8000C40B002480B500AF044B5B681B68044AAA
:100C90000449184630F05AFE00BF80BDD40B002432
:100CA000CA0B00247054030880B500AF044B5B6886
:100CB0001B68044A0449184630F048FE00BF80BD56
:100CC000D40B0024CC0B00247854030880B500AF6B
:100CD000044B5B681B68044A0449184630F036FE32
:100CE00000BF80BDD40B0024C40B0024845403082F
:100CF00080B500AF044B5B681B68044A0449184682
:100D000030F024FE00BF80BDD40B0024CE0B0024A5
:100D10009454030880B500AF044B5B681B68044A19
:100D20000449184630F012FE00BF80BDD40B0024E9
:100D3000D00B0024A054030890B585B000AF002369
:100D4000FB601DE0314B5C68314AFB6852F8332090
:100D50003B461146184610F08FFE3B460CCB94E8FC
:100D6000030010F009FF0346002B06D1284AFB6858
:100D7000DB0013445B68984744E0FB680133FB6089
:100D8000FB68092BDED90023BB6036E01F4B5B6894
:100D90001A682049BB6851F833301946104630F0C4
:100DA000AFFF0346002B25D0184B1868174B5B6824
:100DB0001968164B5B685A68012319F083FF154ABE
:100DC000BB68DB0013445B689847134B1B68022B1E
:100DD00017DD124B6D221249032008F0D3FF0B4B95
:100DE0005B685968094B5B681B681A460D4809F037
:100DF00019F806E0BB680133BB60BB68042BC5D99A
:100E000000E000BF1437BD4690BD00BFD40B0024E6
:100E10000000002450000024B0020024508C03087D
:100E20004C5503087055030880B400AF034B0122F2
:100E30001A7000BFBD465DF8047B7047F00C0024BB
:100E400080B400AF034B00221A7000BFBD465DF8AE
:100E5000047B7047F00C002480B500AFF022002125
:100E6000024830F0A1FE00BF80BD00BFE80B0024A7
:100E700090B58DB002AFFFF7EFFF594B596807F1FE
:100E80001003584A083103C908F0CDFD97ED047BE3
:100E9000FDEEC77BC7ED017A3A79534B9A70524BFE
:100EA0009B781946514830F085FC4D4B596807F145
:100EB00010034F4A083103C908F0B5FD97ED047BD4
:100EC000FDEEC77BC7ED017A3A79474BDA70464BA6
:100ED00001221A70444BDB781946464830F06AFC10
:100EE000414BDB78092B02D9FFF7B6FF75E00023F1
:100EF0007B626CE07B6A013319463F480EF034FA9E
:100F00003862374B5B683A6A083393E8030008F0AD
:100F100099FEF86107F10803F969184610F0ACFD75
:100F20007B6A591CFA68BB68344830F043FCB868E7
:100F30007A6A13465B001344DB0008332A4A1344E1
:100F4000191D7A6A13465B001344DB00264A1344DA
:100F50001C1D7A6A13465B001344DB00224A1344CB
:100F60000833009323460A46254930F0EFFC7A6A9D
:100F700013465B001344DB0008331B4A1344181D5F
:100F800019497A6A13465B001344DB000B440433AF
:100F90001968154C7A6A13465B001344DB0023443E
:100FA00008331B6801930091034600221549164837
:100FB0000EF0DAF9B861B86930F0FCFB386A2DF050
:100FC0002BFBB8692DF028FB7B6A01337B62064B53
:100FD000DB781A467B6A93428CDB2C37BD4690BD8A
:100FE000DC0B002480550308E40B00248C55030817
:100FF00098550308A4550308B4550308C0550308C1
:10100000D055030889F70008DC55030880B584B083
:1010100000AF0D4B01225A700C4B596807F10803C1
:101020000B4A083103C908F0FEFC97ED027BFDEE88
:10103000C77BC7ED017A3A79034B83F8082100BFDB
:101040001037BD4680BD00BFE40B0024DC0B00243C
:101050008055030890B587B002AF7860384B4FF0E9
:101060007C521A60374B18684FF0FF33009300230F
:101070000122072129F06CFFF860FB6803F00703E9
:10108000072BEFD0FB6803F00203002B02D0FFF721
:1010900053FEE7E7FB6803F00103002BE2D02A4B85
:1010A0001B68012B1DDD294BC8222949022008F0AD
:1010B00069FE284B1B68596B264B5B68DB681C4636
:1010C000244B5B689A68234B5B685B681846214B2E
:1010D0005B681B6801930090134622461E4808F087
:1010E000A1FE1C4B5B681B6812221C49184630F09D
:1010F00070FD0346002B0FD1164B5B680833184672
:101100001BF0F6F8164B1B7883F00103DBB2002BC3
:10111000A8D0FFF7ADFEA5E70E4B5B681B680F225A
:101120001049184630F055FD0346002B9AD1094B63
:101130005B68083318461BF0DBF8FFF767FF91E7A1
:10114000C40B0024740B0024B0020024648C030838
:101150004C550308DC0B00240C56030828560308E2
:10116000F00C00243C56030880B500AF0A481BF081
:1011700035F90A481CF048FD29F0D0FE0346084A1C
:101180001360084A0021084829F0FEFB0346074A7D
:10119000136000BF80BD00BF290B00085D0B000875
:1011A000740B00242C8C030855100008F40C002448
:1011B00080B400AF0C4B9B7B002B05D00A4B1B7BF4
:1011C000002B01D001230AE0074BDB7B002B05D06D
:1011D000054B5B7B002B01D0022300E00023184667
:1011E000BD465DF8047B7047D00D002480B400AF8D
:1011F0000C4B9B79012B05D10A4BDB79012B01D1DB
:1012000001230AE0074B9B79002B05D1054BDB79C5
:10121000002B01D1002300E002231846BD465DF8F3
:10122000047B7047D00D002480B582B000AF244B02
:1012300093ED007BB0EE470B224829F0D9FA034624
:10124000002B35D1204B9B6CDB6907EE903AB8EE52
:10125000E77BB0EE470B2EF0CBFD87ED000B184B74
:1012600093ED007B97ED006BB4EEC76BF1EE10FAD7
:101270001FDD134B93ED007B9FED0F2BB0EE471B53
:1012800097ED000B2EF042FEB0EE407B0C4B83ED51
:10129000027B0B4B93ED027BB0EE470B2EF01EFE54
:1012A00002460A4B1B68194610462EF0D5FA00E09C
:1012B00000BF0837BD4680BD9A9999999999F53F25
:1012C000280D0024100D0024D00D002460080024F7
:1012D00080B582B000AF0346FB71074B9B88FA795B
:1012E0001146184629F02DFA03461A46024B9A80F9
:1012F00000BF0837BD4680BD400D002480B582B0D8
:1013000000AF0346FB71074B9B88FA7911461846DC
:1013100029F02FFA03461A46024B9A8000BF08377D
:10132000BD4680BD400D002480B500AF2A4B9B8890
:101330000421184629F0ECF90346002B05D0274973
:101340004FF00002264BC1E90023234B9B88032169
:10135000184629F0DDF90346002B05D01F491AA3D2
:10136000D3E90023C1E900231B4B9B8802211846C7
:1013700029F0CEF90346002B05D018494FF00002A2
:10138000184BC1E90023144B9B880121184629F012
:10139000BFF90346002B05D010490DA3D3E9002364
:1013A000C1E900230C4B9B880021184629F0B0F9B5
:1013B0000346002B06D009494FF000024FF000030E
:1013C000C1E9002300BF80BD9A9999999999E93F95
:1013D0009A9999999999B93F400D0024280D0024B4
:1013E0000000F03F0000E03F80B500AF0622002182
:1013F000054830F0D9FBF0220021044830F0D4FB3E
:10140000FFF71EFD00BF80BD400D0024E80B002447
:1014100080B58AB006AF194B01221A70174B002213
:101420005A70164B1B781A46154B5A71154B9B7800
:101430001A46154BDB6CDB680493144B03930023B3
:101440000293134B01930092124B00221049124851
:101450000DF08AFFF8603B1DF968184610F00CFB90
:1014600003223B1D93E803001AF0CEFEF8682DF02E
:10147000D3F800BF1037BD4680BD00BF400D00242B
:10148000780B0024E40B0024D00D002474560308CC
:1014900089F70008585603086056030880B582B0E3
:1014A00000AF0346FB710120FFF712FFFB79012B10
:1014B00025D12A4B1B6813F1050F06DB274B1B6850
:1014C000052B02DC264B01221A70254B1B78002BC2
:1014D0003ED0244B00221A74012102202DF0F2FC90
:1014E0000346002B34D0002100202DF0EBFC1D4BD7
:1014F00001221A741A4B00221A70012329E0174B9B
:101500005B6813F1050F06DB144B5B68052B02DCEF
:10151000134B01225A70124B5B78002B18D0114BE1
:1015200000221A74012104202DF0CCFC0346002B6C
:101530000ED00120FFF7E2FE002100202DF0C2FCBA
:10154000084B01221A74064B00225A70012300E056
:10155000002318460837BD4680BD00BFC05801248F
:10156000480D0024280D002480B500AF0120FFF7AE
:10157000AFFE164B5B6813F1050F06DB134B5B6880
:10158000052B02DC124B01221A70114B1B78002B29
:1015900018D0104B00221A74012101202DF092FC6A
:1015A0000346002B0ED00120FFF7A8FE00210020EB
:1015B0002DF088FC074B01221A74054B00221A708B
:1015C000012300E00023184680BD00BFC05801245D
:1015D0004C0D0024280D002480B500AF0120FFF73A
:1015E00077FE164B5B6813F1050F06DB134B5B6848
:1015F000052B02DC124B01221A70114B1B78002BB9
:1016000018D0104B00221A74012103202DF05AFC2F
:101610000346002B0ED00120FFF770FE00210020B2
:101620002DF050FC074B01221A74054B00221A7052
:10163000012300E00023184680BD00BFC0580124EC
:10164000500D0024280D002480B588B002AF7860CA
:1016500019F054F9C7E902010023FB75294B1B78E7
:10166000002B09D028494FF000024FF00003C1E9D8
:101670000023244B00221A70D7E90223CDE900236E
:101680004FF4FA624FF000031F4828F0DDFF0346D5
:10169000002B02D01B4B01225A701A4B5B78002B97
:1016A00022D00220FFF72AFE7B680E2B13D07B6826
:1016B0000E2B16DC7B680C2B03D07B680D2B05D022
:1016C0000FE0FFF751FF0346FB750DE0FFF784FFC6
:1016D0000346FB7508E00220FFF7FAFD0123FB75C6
:1016E00002E00123FB7500BFFB7D002B05D0054BFD
:1016F00001221A70034B00225A70FB7D18461837DE
:10170000BD4680BD540D0024000D002480B586B078
:1017100000AFF860B9607A60354BDB6CDB68194666
:10172000F8682EF041FD034683F00103DBB2002B85
:1017300001D0002358E0BB68002B06D10020FFF742
:10174000C7FD2C4B01221A703BE0FFF731FD034629
:10175000FB75BB68012B02D0BB68032B01D10223B0
:1017600000E00123BB75FA7DBB7D9A420ED1214B6F
:101770005B7883F00103DBB2002B07D01D4B012205
:101780001A70BB68DAB21C4BDA741AE0194B0122EA
:101790005A70BB7D1846FFF781FE0346002B10D020
:1017A000144B00225A70154B1B68022B09DD144B99
:1017B00040F241121349032008F0E4FA124808F0FD
:1017C00031FB0C4B1B78002B0DD07868FFF73CFFEA
:1017D0000346002B07D0074B00221A700020FFF7AA
:1017E0008DFD012300E0002318461837BD4680BD5B
:1017F000D00D0024580D0024280D0024B002002430
:10180000988C03087C560308A456030880B500AFE3
:10181000042200210D4830F0C7F9042200210C48B1
:1018200030F0C2F9042200210A4830F0BDF9042248
:101830000021094830F0B8F904220021074830F0AF
:10184000B3F9064B01221A7000BF80BD480D002479
:101850004C0D0024500D0024580D0024540D00247C
:1018600090B583B000AF404B1B78002B29D03F4B85
:101870005B7883F00103DBB2002B22D03B4B0122CB
:101880005A70394B00221A70384B00221A70384BAC
:1018900001221A740020FFF731FD334BDA78334B05
:1018A0009A70FFF7C1FA334B1B68022B09DD324BEC
:1018B0004FF4B7723149032008F064FA304808F059
:1018C000B1FA2A4B5B7883F00103DBB2002B03D122
:1018D000264B1B78002B01D0012340E0234BDB7803
:1018E0001A4613465B001344DB0008331E4A1344B8
:1018F000181D1E4BDB7819461B4A0B465B000B4438
:10190000DB00134404331968184BDB781C46164A75
:1019100023465B002344DB00134408331B681A464C
:10192000FFF7F4FE0346FB71FB79002B16D00F4B3B
:10193000DB780133DAB20D4BDA700C4BDA780B4BF3
:101940009B789A420AD3FFF74FFDFFF761FD0D4BDD
:101950009B6801330B4A9360012300E00023184683
:101960000C37BD4690BD00BFE40B0024400D0024A1
:10197000280D0024B0020024A08C03087C56030824
:10198000B4560308780B002480B582B000AF7860AD
:10199000334B93F80831022B20D0022B24DC002B90
:1019A00002D0012B14D01FE0FFF71EFD2D4B0022AB
:1019B0001A740020FFF78CFC2B4B01221A702A4B63
:1019C00000225A70264B00221A70FFF71FFF0CE00E
:1019D000FFF746FF0220FFF791FC06E0FFF740FF0C
:1019E0000220FFF775FC00E000BFFFF7FFFB034696
:1019F0001A461E4BDA701D4BDB78002B02D0012BF0
:101A000007D00DE00420FFF763FC0320FFF776FC0E
:101A100006E00320FFF75CFC0420FFF76FFC00BF2B
:101A2000FFF782FCFFF700FC114B5B6A1B78302B41
:101A300014BF01230023DAB20A4B5A74094B1B7CF2
:101A4000084A517C074AD27C064890ED007BB0EEF4
:101A5000470B18462EF03AF9322029F069F897E73B
:101A6000E40B0024280D0024400D0024780B0024F2
:101A7000840B00240000000080B500AF1A4B1B68E7
:101A8000002B07D1194A0021194828F07DFF034691
:101A9000154A1360B5EE000B2EF020FA0246154BE6
:101AA0001B68194610462DF02BFE9FED0D0B2EF0F6
:101AB00015FA02460F4B1B68194610462DF0CCFE56
:101AC0000D4B1B68022B09DD0C4B40F2BB120C497D
:101AD000032008F057F90B4808F0A4F900BF80BDB7
:101AE0009A9999999999D93F200D0024748C0308EB
:101AF0008919000860080024B0020024B08C030893
:101B00007C560308D056030880B500AF114B002265
:101B100083F80821104B1B7883F00103DBB2002B04
:101B200015D00E4B1B68184628F0C0FF0A4B012247
:101B30001A700B4B1B68022B09DD0A4B4FF4E27243
:101B40000949032008F01EF9084808F06BF900BFA6
:101B500080BD00BFE40B0024F80C0024200D0024FD
:101B6000B0020024C08C03087C560308E456030826
:101B700080B500AF084B1B78002B07D0074B1B68C4
:101B8000184628F0B4FF044B00221A70044B0022C0
:101B90001A7000BF80BD00BFF80C0024200D002487
:101BA000780B002480B588B002AF7860494B5B8920
:101BB000002B02D0474B1B7902E0474B5B6CDBB23A
:101BC000FB752DF0BFFA0346002B14BF0123002341
:101BD000DBB283F00103DBB2BB75BB7D03F0010315
:101BE000BB75FB7D013B052B3ED801A252F823F0CB
:101BF000091C0008211C0008391C0008451C0008AD
:101C0000511C00085D1C0008344B01221A60314B46
:101C1000D3ED007AB7EEE77A314B83ED007B2FE00E
:101C20002E4B03221A602B4BD3ED007AB7EEE77AE6
:101C30002B4B83ED007B23E0BB7D194601202DF06B
:101C400041F91DE0BB7D194603202DF03BF917E05B
:101C5000BB7D194602202DF035F911E0BB7D1946F8
:101C600004202DF02FF90BE01D494FF000024FF03A
:101C70000003C1E90023002100202DF023F900BF5B
:101C8000184B1B787B75154B1B68DAB2144B93ED20
:101C9000007B7B7DB0EE470B194601202EF016F835
:101CA00018F02CFEC7E90201D7E90223CDE9002391
:101CB0004FF0C8024FF000030B4828F0C5FC034664
:101CC000002B02D0034B00221A71322028F030FF83
:101CD0006CE700BFC40B0024D00D0024740D002459
:101CE000780D0024900D0024600D002400000000F9
:101CF00080B500AF1A4B1B68022B08DD194B482238
:101D00001949032008F03EF8184808F08BF8184BE2
:101D10001B68002B07D1174A0021174828F034FE12
:101D20000346134A1360B5EE000B2EF0D7F80246B7
:101D3000124B1B68194610462DF0E2FC9FED060B76
:101D40002EF0CCF802460D4B1B68194610462DF0BC
:101D500083FD00BF80BD00BF333333333333D33F04
:101D6000B0020024F48C030804570308305703081A
:101D7000700D0024D08C0308A51B00086008002407
:101D800080B500AF0E4B1B7883F00103DBB2002B54
:101D900014D00C4B1B68184628F088FE084B012213
:101DA0001A70094B1B68022B08DD084B55220849A5
:101DB000032007F0E7FF074808F034F800BF80BDB4
:101DC0005C0D0024700D0024B0020024048D030873
:101DD000045703084457030880B500AF094B1B782C
:101DE000002B0AD0084B1B68184628F080FE054BD4
:101DF00000221A70054B00221A71054B01221A703D
:101E000000BF80BD5C0D0024700D0024C40B0024B5
:101E1000780B002480B584B002AF03460A46FB71FC
:101E20001346BB800A22002108482FF0BDFEFA7934
:101E3000BB8800931346064A0A2104482FF032FD5E
:101E4000024B18460837BD4680BD00BF840D0024F4
:101E50006857030880B483B000AF00233B700023B1
:101E60007B7000237B80174B1B78002B02D03B68D4
:101E70007B6019E0144B9B6C1B69002B03DA124B3F
:101E80001B78012B08D0104B9B6C1B69002B09DDC4
:101E90000D4B5B78012B05D101233B7001237B7037
:101EA00000237B803B687B600023BA8862F30F03CA
:101EB000FA8862F31F4318460C37BD465DF8047B71
:101EC000704700BF780B0024D00D002480B483B08D
:101ED00000AF00233B7000237B7000237B80174BF7
:101EE0001B78002B02D03B687B6019E0144B5B79B8
:101EF000012B04D1124B9B6C1B69002B08DB104B90
:101F0000DB78012B0AD10E4B9B6C1B69002B05DD86
:101F100001233B7001237B7001237B803B687B6046
:101F20000023BA8862F30F03FA8862F31F4318464E
:101F30000C37BD465DF8047B704700BF780B00246A
:101F4000D00D002480B483B000AF00233B70002389
:101F50007B7000237B801C4B1B78002B02D03B68DE
:101F60007B6024E0194BDB7C002B03D1174BDB7C1F
:101F7000002B02D03B687B6019E0144B1B79012BCE
:101F800004D1124B9B6C1B69002B08DB0F4B9B7819
:101F9000012B0AD10D4B9B6C1B69002B05DD012326
:101FA0003B7001237B7002237B803B687B600023B6
:101FB000BA8862F30F03FA8862F31F4318460C379E
:101FC000BD465DF8047B7047780B0024D00D0024DB
:101FD00080B483B000AF00233B7000237B700023EC
:101FE0007B80174B1B78002B02D03B687B6019E08D
:101FF000144BDB7C002B03D1124BDB7C002B02D07B
:102000003B687B600EE00F4B9B6C1B69002B07D07D
:102010000B4BDB78022B03D101233B7002237B7037
:102020003B687B600023BA8862F30F03FA8862F38F
:102030001F4318460C37BD465DF8047B704700BF50
:10204000780B0024D00D002480B483B000AF0023AF
:102050003B7000237B7000237B800C4B5B7F002B4D
:1020600005D001233B7000237B7001237B803B68FC
:102070007B600023BA8862F30F03FA8862F31F4380
:1020800018460C37BD465DF8047B7047D00D002420
:1020900080B483B000AF00233B7000237B7000232B
:1020A0007B80134B93F85030002B02D13B687B6050
:1020B00011E001233B7000237B700D4B93F85030EF
:1020C000012B02D101237B8003E0094B9B6C5B8CCD
:1020D0007B803B687B600023BA8862F30F03FA8839
:1020E00062F31F4318460C37BD465DF8047B70470A
:1020F000D00D002480B483B000AF00233B700023D8
:102100007B7000237B80114B93F85130002B02D160
:102110003B687B600CE001233B7001237B700B4B21
:1021200093F85030012B01D100237B803B687B600A
:102130000023BA8862F30F03FA8862F31F4318463C
:102140000C37BD465DF8047B704700BFD00D0024FE
:1021500080B582B000AF00233B7000237B7000236A
:102160007B80124B1B78002B02D03B687B6011E018
:102170000F4BDB6CDB680F4918462EF015F8034651
:10218000002B05D001233B7001237B7001237B8052
:102190003B687B600023BA8862F30F03FA8862F31E
:1021A0001F4318460837BD4680BD00BF780B00248A
:1021B000D00D00247857030880B483B000AF00230B
:1021C0003B7000237B7000237B800F4BD3ED087A9C
:1021D0009FED0E7AF4EEC77AF1EE10FA05DB0123DB
:1021E0003B7002237B7000237B803B687B60002375
:1021F000BA8862F30F03FA8862F31F4318460C375C
:10220000BD465DF8047B7047D00D00240000A0425D
:1022100090B583B000AF384CFFF73AFF0346236018
:10222000354CFFF767FF03466360334CFFF790FFC1
:102230000346A360304CFFF7BFFF0346E3602F4C1B
:10224000FFF702FF034623602C4CFFF7C1FE034655
:1022500063602A4CFFF776FE0346A360274CFFF726
:1022600035FE0346E360254CFFF7F4FD034623618A
:1022700000237B6018E0204A7B6812F82330002B93
:102280000FD01D4A7B689B0013445A781A497B681B
:102290009B000B445B8819461046FFF7BBFD0346C5
:1022A00025E07B6801337B607B68042BE3DD002342
:1022B0003B6018E0114A3B6812F82330002B0FD026
:1022C0000E4A3B689B0013445A780C493B689B00BC
:1022D0000B445B8819461046FFF79CFD034606E059
:1022E0003B6801333B603B68052BE3DD044B18463C
:1022F0000C37BD4690BD00BF900D0024B00D0024EA
:102300008457030880B582B000AF7860FFF780FF84
:102310000346194A5362184B5B6A1B78002B02D0A4
:1023200000F098F801E000F0A3F8144B9B89002B13
:1023300003D1134B9B7E002B19D012482FF0AAFA21
:102340000F4B93F85030022B01D12DF031FD0B4B88
:1023500000229A810A4B002283F85020084B002269
:1023600083F851202022002107482FF01DFC322045
:1023700028F0DEFBCAE700BF840B0024C40B002456
:10238000D00D002488570308900D002480B500AFBD
:10239000044A0021044828F0F7FA0346034A136070
:1023A00000BF80BD188D030805230008800D0024A0
:1023B00080B487B000AF87ED050AC7ED040A87ED4A
:1023C000031AC7ED021A87ED012A97ED057AD7EDBA
:1023D000047A37EE677AD7ED016AD7ED027A76EEA6
:1023E000E77A67EE276A97ED037AD7ED047A77EEFE
:1023F000677A86EEA77AD7ED027A77EE277AB0EE83
:10240000670A1C37BD465DF8047B704780B582B013
:1024100000AF0346FB80FB8807EE903AF8EE677A40
:102420009FED092ADFED091A9FED091ADFED070A72
:10243000B0EE670AFFF7BCFFF0EE407AB0EE670A35
:102440000837BD4680BD00BF00007A430000000091
:1024500000F07F4580B500AF044B1B69034A918AA9
:102460000122184621F058FD00BF80BD90080024CD
:1024700080B500AF044B1B69034A918A00221846BD
:1024800021F04AFD00BF80BD9008002480B582B0D5
:1024900000AF0023FB80784B1B7E012B06D1FB880D
:1024A0000021184628F04DF9034605E0FB8800217D
:1024B000184628F05EF90346FB806F4B5B7E012BCC
:1024C00006D1FB880121184628F03BF9034605E0B8
:1024D000FB880121184628F04CF90346FB80664B27
:1024E0001B7D012B06D1FB880221184628F029F913
:1024F000034605E0FB880221184628F03AF9034616
:10250000FB805D4B5B7D012B06D1FB8803211846C8
:1025100028F017F9034605E0FB880321184628F048
:1025200028F90346FB80544B9B7D012B06D1FB8889
:102530000421184628F005F9034605E0FB8804212C
:10254000184628F016F90346FB804B4BDB7D012B28
:1025500006D1FB880521184628F0F3F8034605E06C
:10256000FB880521184628F004F90346FB80424BFE
:102570009B7E012B06D1FB880621184628F0E1F846
:10258000034605E0FB880621184628F0F2F80346CA
:10259000FB80FB88202B47DC002B64DD013B1F2BDD
:1025A00061D801A252F823F02F2600083726000830
:1025B000672600083F2600086726000867260008EF
:1025C00067260008472600086726000867260008D7
:1025D00067260008672600086726000867260008A7
:1025E000672600084F2600086726000867260008AF
:1025F0006726000867260008672600086726000887
:102600006726000867260008672600086726000876
:102610006726000867260008672600086726000866
:102620006726000857260008402B18D01BE0124BE5
:1026300001225A641BE0104B02225A6417E00E4B31
:1026400003225A6413E00C4B04225A640FE00A4B35
:1026500005225A640BE0084B06225A6407E0064B39
:1026600007225A6403E0044B00225A6400BF00BFF3
:102670000837BD4680BD00BFD00D002480B500AF37
:102680002CF0B2FAF0EE407A1E4BC3ED097A2CF032
:102690000BFBF0EE407A1B4BC3ED0B7A2CF058FB92
:1026A00003461A46174B83F842202CF0C9FAF0EE85
:1026B000407A144BC3ED0A7A2CF080FB03461A468D
:1026C000104BA3F840202CF0A9FB03461A460D4BF3
:1026D000DA872CF08BFB03461A460A4B9A872CF0BC
:1026E00043FBF0EE407A074BC3ED0E7A2CF006FB6D
:1026F000F0EE407A034BC3ED0D7A81202CF034FAD2
:1027000000BF80BDD00D002480B584B002AF18F0AA
:10271000F5F8C7E90001D7E90023CDE9002340F629
:10272000B8324FF000030B4827F08EFF0346002B12
:102730000BD0094B93F82530002B04D0064B002218
:1027400083F8252001E0002300E001231846083724
:10275000BD4680BD380E00246C58012480B584B07D
:1027600002AF18F0CBF8C7E90001D7E90023CDE9A3
:1027700000234FF47A724FF000030A4827F064FFF9
:102780000346002B09D0084B1B7C002B03D0064BC3
:1027900000221A7401E0002300E0012318460837E4
:1027A000BD4680BD400E0024C058012480B582B0D3
:1027B00000AF0023FB801B4B1B4A9A6405E0FB889B
:1027C0000133FB80052028F0B3F9174B93F8243030
:1027D00083F00103DBB2002B03D0FB88B3F57A7FD3
:1027E000EDD3FB88B3F57A7F01D3002315E00F4BBF
:1027F0001B68194603202CF0E3FE0C4B1B6819469E
:102800000F202CF02DFF094B1B68194601202DF0DD
:102810009FF907482FF03EF8012318460837BD46B8
:1028200080BD00BFD00D00246C5801246008002436
:10283000A057030880B582B000AF0023FB8005E0FD
:10284000FB880133FB80052028F072F90E4B1B7CBE
:1028500083F00103DBB2002B03D0FB88B3F5FA5FF2
:10286000EED3FB88B3F5FA5F01D3002307E00A211A
:1028700001202DF06DF905482FF00CF801231846C2
:102880000837BD4680BD00BFC0580124B0570308BB
:1028900080B582B000AF78600B467B807B681B6898
:1028A000044A934201D12CF07FF800BF0837BD469F
:1028B00080BD00BF0078004080B483B000AF786076
:1028C000044A7B68136000BF0C37BD465DF8047B8B
:1028D000704700BF280E002480B582B000AF78603A
:1028E0003960134B5B6A134A13600822124913487C
:1028F0002FF0EDFA0F4B1B68B3F5C57F04D30D4BDA
:102900001B68B3F5C77F05D90A4B1B6840F20A72F2
:10291000934206D1074B1B68084918462DF07CFBF3
:1029200002E02CF0DDFC00BF00BF0837BD4680BDD3
:10293000500E0024E00E0024C00E0024D40E00240B
:1029400080B500AF00220A490A4800F039FA112286
:102950001121084800F0B1FA074800F051FA074B7E
:102960001B681946034800F0D3FA00BF80BD00BFC2
:10297000A8420024500E0024D92800086008002432
:1029800090B5C5B040AF7860484B1B6801224849FC
:1029900048489847484B1B68102248494848984780
:1029A000FFF7CEFF2DF01CFB46482CF0F9FD464BFF
:1029B000464ADA64464C474A21AB1146782218460B
:1029C0002FF085FA684604F11003842219462FF08F
:1029D0007EFA94E80F002BF03FFF3F4B03933F4BF1
:1029E00002933F4B01933F4B00933F4B3F4A40497B
:1029F00040482CF071FBFFF7D9FE0346002B03D0B3
:102A0000314B012283F85020FFF714FF0346002BBF
:102A100003D02D4B012283F8512017F06FFFC7E937
:102A20000201354B1B68284A927F10469847264B77
:102A30009B6C5B8C002B03D0234B022283F850202D
:102A4000FFF762FE0346002B03D01F4B012283F8E1
:102A50005020FFF783FE0346002B03D01A4B0122C0
:102A600083F85120FFF712FDD7E90223CDE90023B7
:102A70004FF4C8724FF00003204827F0E5FD0346ED
:102A8000002B0ED0FFF7FAFD084B5B68002098473B
:102A900003461846FFF7BAFCF0EE407A0A4BC3ED46
:102AA000087A322028F044F8B7E700BF80080024F5
:102AB00000200258B0430024880800240010025867
:102AC00038440024500E0024D00D0024C0580124A6
:102AD0008445002440470024DD0D0024DF0D002440
:102AE000DC0D0024DE0D0024E10D0024E30D0024A4
:102AF000E00D0024E20D0024280E0024300E0024F6
:102B000080B500AF044A0021044827F03DFF03468A
:102B1000034A136000BF80BD3C8D03088129000873
:102B2000240E0024F0B5DDB052AF78617D4BDB6B35
:102B30007B627D4B7D4ADA637B6A083300937C4B72
:102B40007C4A14217C480CF0D9FB7C4BDB6CDB68A5
:102B50007B4918462DF028FB034683F00103DBB2C6
:102B6000002B06D0754BDB6CDB68194675482FF0DF
:102B7000A6F96D4BD96B744B1B783B616A4B586857
:102B8000694BD3ED037AB7EEE77A674B9C68664BE7
:102B90001B78FB60644B93ED056A634BD3ED066ACB
:102BA00066EE266AB7EEE66A5F4B5D6A5E4BD3ED72
:102BB000045AB7EEE55A644B5B79BB60624BDB7835
:102BC0007B60614B9E685D4BD3ED084AB7EEE44AEB
:102BD0008DED504B5D4B4E9300234D935C4B4C93CE
:102BE0004FF000025B4BCDE94A235B4B4893002337
:102BF0004793574B46934596584B44930023439332
:102C0000534B42937A684192554B409300233F9334
:102C10004F4B3E934B4B3D9300233C934C4B3B938C
:102C2000504B3A9300233993494B3893BA68379203
:102C30004D4B369300233593454B34938DED325BEA
:102C40004A4B309300232F93414B2E932D95002315
:102C50002C933F4B2B93464B2A93002329933C4BB9
:102C600028938DED266B434B249300232393384BFD
:102C7000229301232193404B209300231F93344B35
:102C80001E93FA681D923D4B1C9300231B93304BFF
:102C90001A9319943A4B1893002317932C4B1693BD
:102CA0008DED147B374B139300231293284B119314
:102CB0001090354B0F9300230E93254B0D933B69DA
:102CC0000C93324B0B9300230A93214B09931A4B1D
:102CD0000893002307931E4B06932D4B0593002367
:102CE00004931B4B0393029100230193184B009311
:102CF000284B0022164928480CF036FB386207F1B1
:102D00001803396A18460EF0B7FE07F11803184683
:102D100019F0E0FA386A2BF07FFC4FF4967027F038
:102D200007FF09E768410024840B0024D0570308FB
:102D3000B5F40008D4570308AC0B0024D00D0024D0
:102D4000D8570308E80E0024780B00246C580308B9
:102D500089F7000800804340785803088458030826
:102D600098580308A8580308B0580308C058030827
:102D7000C8580308D4580308DC580308EC58030863
:102D8000045903081859030828590308345903083B
:102D900040590308E4570308E857030880B500AF1B
:102DA000044A0021044827F0EFFD0346034A13605C
:102DB00000BF80BD608D0308252B0008E40E0024B1
:102DC00080B485B000AFF860B9601346FB71FB7941
:102DD000002B02D04FF0804200E00022FB68C3F8D5
:102DE0008020FB68BA68DA64044AFB68136000BF9D
:102DF0001437BD465DF8047B704700BF080F002400
:102E000080B483B000AF7860044A7B68136000BF71
:102E10000C37BD465DF8047B704700BF0C0F0024E3
:102E200080B582B000AF786039603B6803F0010381
:102E3000002B1ED0114B1B6803F124020F4B1B68A3
:102E40007033402178681FF0D5FF0346002B01D076
:102E50001BF04EFF00220121786820F037F903466D
:102E6000002B01D01BF044FF054B1B6839687868C4
:102E7000984700BF0837BD4680BD00BF080F00243B
:102E80000C0F002480B584B000AFF860B960134621
:102E9000FB71FA79FB68DA60FB68DB6CF968BA6889
:102EA00018461FF04CFF0346002B01D0012300E021
:102EB000002318461037BD4680BD80B584B000AFF2
:102EC000F860B9607A60FB68D3F88020FB681A6507
:102ED000FB6800225A65FB6802229A65FB680122A2
:102EE000DA65FB68BA681A66FB687A685A66FB6836
:102EF000DA6CFB685033194610461FF07FFE03461C
:102F0000002B01D01BF0F4FE00BF1037BD4680BD82
:102F100080B582B000AF786039607B68DB6C1846A2
:102F20001FF0E2FE0346002B01D01BF0E1FE7B68A0
:102F3000DB6C00220121184620F0C8F80346002B64
:102F400001D01BF0D5FE7B683A681A607B68D3F825
:102F500080207B685A607B6800229A607B68082228
:102F6000DA607B6800221A617B6800225A617B6804
:102F70004FF400129A617B680022DA617B680022BC
:102F80001A6200BF0837BD4680BD80B584B000AF6F
:102F9000786039607B683A6802FB03F318462BF0CF
:102FA0006DFAF860FB68002B08D03B687A6802FB7A
:102FB00003F31A460021F8682EF0F6FDFB68184668
:102FC0001037BD4680BD80B483B000AF78607B68A9
:102FD000192B02DC7B68413311E07B68332B02DC68
:102FE0007B6847330BE07B683D2B02DC7B68043B4E
:102FF00005E07B683E2B01D12B2300E02F231846F0
:103000000C37BD465DF8047B704780B483B000AFD9
:1030100078607B68402B05DD7B685A2B02DC7B687F
:10302000413B22E07B68602B05DD7B687A2B02DC6C
:103030007B68473B19E07B682F2B05DD7B68392BCC
:1030400002DC7B68043310E07B682B2B01D13E232C
:103050000BE07B682F2B01D13F2306E07B683D2BE3
:1030600001D1402301E04FF0FF3318460C37BD4635
:103070005DF8047B7047000080B586B000AF034662
:10308000B9607A60FB737B6803F00302384BA3FBE3
:10309000021359080B465B000B44D31A7B617B6912
:1030A000002B19D1FB7B9B08DBB21846FFF78BFF87
:1030B0000146BA687B681344CAB21A70FB7B1B01D5
:1030C000DAB27B6801337B60B9687B680B4402F03D
:1030D0003002D2B21A7046E07B69012B1FD1BA6868
:1030E0007B6813441A78FB7B1B09DBB21343DBB20A
:1030F0001846FFF768FF0146BA687B681344CAB2F6
:103100001A70FB7B9B00DAB27B6801337B60B96885
:103110007B680B4402F03C02D2B21A7023E0BA681A
:103120007B6813441A78FB7B9B09DBB21343DBB249
:103130001846FFF748FF0146BA687B681344CAB2D5
:103140001A70FB7B03F03F031846FFF73CFF014674
:103150007B6801337B60BA687B681344CAB21A701B
:103160007B6801337B607B6818461837BD4680BD9D
:10317000ABAAAAAA80B584B000AF786039603B687A
:10318000FB603B6803F00303002B05D03A687968C5
:103190000020FFF771FF3860FB6803F00303022B88
:1031A0000AD13B68013B3B6006E03B685A1C3A6031
:1031B0007A6813443D221A703B6803F00303002B26
:1031C000F3D17A683B68134400221A703B681846B2
:1031D0001037BD4680BD000080B586B000AFF860F6
:1031E000B9607A603B6000233B613B68002B02D0F2
:1031F0007B6800221A70BB681B4AA2FB0323580895
:10320000B968194BA3FB01235A0813465B0013440A
:10321000CA1A002A01D0012300E0002303449B00C6
:1032200001333A689A4201D2002319E000237B61FE
:103230000CE0FA687B6913441B783A697968184690
:10324000FFF71AFF38617B6901337B617A69BB68DC
:103250009A42EED339697868FFF78CFF38613B6991
:1032600018461837BD4680BDABAAAAAA80B58AB059
:1032700000AFF860B9607A603B60FB68002B03D058
:10328000FA68BB68134400E000233B6200237B62C2
:10329000BB689A0813465B00134401333A689A42AC
:1032A00075D365E0FB681B781846FFF7AEFEF86142
:1032B000FB6801331B781846FFF7A7FEB861FB686F
:1032C00002331B781846FFF7A0FE7861FB680333D2
:1032D0001B781846FFF799FE3861FB69402B58D0E0
:1032E000FB69002B55DBBB69402B52D0BB69002B1F
:1032F0004FDB7B69002B4CDB3B69002B49DBFB6917
:103300009B005AB2BB691B115BB2134359B27B6A73
:103310005A1C7A627A681344CAB21A70FB68023384
:103320001B783D2B21D0BB691B015AB27B699B10D6
:103330005BB2134359B27B6A5A1C7A627A681344AF
:10334000CAB21A70FB6803331B783D2B0DD07B6922
:103350009B015AB23B695BB2134359B27B6A5A1C58
:103360007A627A681344CAB21A70FB680433FB604D
:10337000FB68002B04D0FB6803333A6A9A4291D869
:103380007A687B6A134400221A707B6A09E000BFE6
:1033900000E000BF3B68002B02D07B6800221A705F
:1033A000002318462837BD4680BD80B58AB000AFDF
:1033B000F860B9607A603B6000237B6231F00BFDFE
:1033C0003862BA68FB68D31AFB61FB68BB610823EB
:1033D0007B61BB691B68B3F1FF3F38D03B6A002BB0
:1033E0000AD07A693B6A13445A1E3B6AB2FBF3F374
:1033F0003A6A02FB03F300E07B69FA69934226D242
:103400003B68002B03D0BB691A683B681A607B6875
:10341000002B03D0BB695A687B681A603B6A002B9B
:1034200003D1BB691B6808330AE0BB691A683B6AB1
:103430001344DA1D3B6AB2FBF3F33A6A02FB03F36F
:103440007B62FA697B6A9A4201D200237B627B6AC3
:1034500018462837BD4680BD80B584B000AF31F036
:10346000B1FCB86031F0A1FC786031F095FC3860B7
:103470007A68BB68D31A3A681344FB6031F0B3FC36
:103480000346022B05D17B685B085B42FA68134454
:10349000FB60FB6818461037BD4680BD80B58EB016
:1034A00000AFF860B9607A603B6031F075FC38625B
:1034B000FB687B6300233B6331F084FCF8610023ED
:1034C000FB62002387F82B307B6B002B02D1FFF7C8
:1034D000C3FF78637A6B3B6A9A4207D331F065FC8D
:1034E00002463B6A13447A6B9A420FD3384B1B68EF
:1034F000002B67DD374B40F219123749012006F0E7
:1035000041FCF968354806F08DFC5BE07A6B3B6A5C
:10351000D31AFA69B3FBF2F2F96901FB02F29B1AC2
:10352000002B0FD02A4B1B68002B4BDD294B40F2A0
:103530001B122949012006F025FCF968284806F0ED
:1035400071FC3FE000237B621BE03B69BA689A4252
:1035500010D17B693A689A420CD1FB6A08337A6BC6
:1035600013443B633A68396B78682EF0B0FC012352
:1035700087F82B30FA6ABB691344FB627B6A01331C
:103580007B627A6BFB6AD0187A6BFB69D11807F102
:10359000140307F11002FFF708FFB861BB69002BA5
:1035A000D3D10B4B1B68022B0CDD0A4B4FF49472EA
:1035B0000949032006F0E6FB3B6BBA68796A0948C3
:1035C00006F030FC97F82B3018463837BD4680BDE2
:1035D000B0020024A88F030844590308285A03089E
:1035E000405A03085C5A030890B591B000AF786068
:1035F00000237B610023BB610023FB614FF4006368
:103600003B6231F0DFFB78630023FB6308233B63FD
:10361000434B1B68022B41DD424B4FF49B724249E6
:10362000032006F0AFFB7968404806F0FBFB35E06D
:103630000023BB631EE07A69BB6B043313441B6831
:10364000BB627A69BB6B13441B687B62FB68BA6A16
:103650009A4209D17A6A3B6B1A4407F11403B96B99
:10366000184605F053FC09E07A6A3B6B1344BA6BC9
:103670001344BB63FB69BA6B9A42DCD3F9697A687D
:10368000FB6BD4183A693B6B134407F114002246D4
:1036900005F0EAFBFA6BFB6A1344FB637A68FB6B89
:1036A000D0187A687B6BD11807F1100307F10C0270
:1036B000FFF77BFEF862FB6A002BB9D1786831F026
:1036C00081FC0346002B22D00023FB631BE07A69B8
:1036D000FB6B13441B683B617A69FB6B0433134437
:1036E0001B68FB60F8687A69F96B3B6B0B441A4402
:1036F0003B690146786800F01BF83A693B6B13445C
:10370000FA6B1344FB63FB69FA6B9A42DFD307F150
:103710001403184605F045FC00BF4437BD4690BD74
:10372000B0020024B88F030844590308805A0308E4
:103730002DE9B04F94B002AFF860B9607A603B6099
:1037400031F02AFB3863FB687B6431F03BFBF862A5
:1037500000233B64002387F83B307B6C002B02D1B5
:10376000FFF77AFE78647A6C3B6B9A4207D331F0AC
:103770001CFB02463B6B13447A6C9A4210D3824B7B
:103780001B68002B40F3AF81804B40F257128049F9
:10379000012006F0F7FAF9687E4806F043FBA2E143
:1037A0007A6C3B6BD31AFA6AB3FBF2F2F96A01FB4B
:1037B00002F29B1A002B10D0734B1B68002B40F3B6
:1037C0009281724B40F259127149012006F0DAFAE7
:1037D000F968714806F026FB85E16B461D4631F01D
:1037E000FAFA04462346013BBB620023A2469B46ED
:1037F0004FF000024FF000034FEACB0343EA5A7345
:103800004FEACA020023A04699464FF000024FF04B
:1038100000034FEAC90343EA58734FEAC802E31DA5
:10382000DB08DB00ADEB030D02AB00337B623B68D2
:103830003B61BB687B613B6808333B62002C01D174
:103840003B6A06E03B6A2344013BB3FBF4F304FB11
:1038500003F3FB6103E03A6CFB6B13443B647A6C4B
:103860003B6CD0187A6CFB6AD11800230022FFF75A
:103870009CFDF863FB6B002BEDD13A6CFB691344A4
:10388000FA6A9A4217D8786CFFF7AEFE00233B64C1
:1038900003E03A6CFB6B13443B647A6C3B6CD018CE
:1038A0007A6CFB6AD11800230022FFF77EFDF863D3
:1038B000FB6B002BEDD13A6CFB691344FA6A9A4218
:1038C000C0F00281072C1AD87A6C3B6C134407F1C4
:1038D00010010822184631F05DFC034687F83B30A2
:1038E00097F83B30002B00F0C1803B6C08337A6CBA
:1038F00013443A687968184631F04CFCB6E0A4F1FC
:103900000803FB63FA6B3B689A4201D93B68FB638F
:103910002246FF21786A2EF047F907F110030822AA
:103920001946786A2EF0D3FA7B6A0833FA6B796805
:1039300018462EF0CCFA144B1B68012B0ADD134BF2
:1039400040F277121249022006F01CFA2146134871
:1039500006F068FA7A6C3B6C13442246796A184682
:1039600031F018FC034687F83B3097F83B30002BCA
:103970007CD03A68FB6B9A4278D9002C10D13A6817
:10398000FB6BD31A13E000BFB0020024D08F0308F2
:1039900044590308285A0308405A0308985A030850
:1039A0003A68FB6BD31AB3FBF4F304FB03F3BB617C
:1039B000BB69002B1CD04F4B1B68012B0ADD4E4B03
:1039C0004FF4BE724D49022006F0DCF9B9694C484B
:1039D00006F028FA3B6C23447A6CD0187A68FB6BAB
:1039E0001344BA69194631F0D5FB034687F83B30DA
:1039F00097F83B30002B39D03A68FB6B9A4235D9A7
:103A00003A68FB6BD21ABB69D31A7B637B6B9C420F
:103A100000D27C632246FF21786A2EF0C5F8FA6B4B
:103A2000BB6913447A6813447A6B1946786A2EF09E
:103A30004EFA304B1B68012B0ADD2F4B4FF4C2723C
:103A40002E49022006F09EF9796B2E4806F0EAF91D
:103A50003B6CE218BB6913447A6C13442246796AC2
:103A6000184631F097FB034687F83B30214B1B6823
:103A7000022B14DD204B40F289122049032006F06E
:103A800081F97A6C3B6C1A4497F83B300193BB6820
:103A900000931346FA6939681B4806F0C3F9154BC1
:103AA0001B68022B1EDD144B40F28B1213490320BE
:103AB00006F068F9FA6A3B6CD21AFB69D31A194608
:103AC000124806F0AFF90DE00A4B1B68002B09DD28
:103AD000094B40F28D120949012006F053F90C48B8
:103AE00006F0A0F9AD4697F83B3018464837BD467A
:103AF000BDE8B08FB0020024D08F030844590308FA
:103B0000B45A0308C85A0308DC5A0308045B0308C4
:103B1000245B030880B584B000AF786039607B68AF
:103B2000FB6002E0FB681B68FB60FB681B683A688F
:103B30009A42F7D13B681A68FB681A6038682AF025
:103B40006BFD00BF1037BD4680BD80B586B000AFAD
:103B500078607B685B6830333B613B691B687B61E5
:103B60000DE07B691B68FB607B695B687A689A4241
:103B700003D179693869FFF7CDFFFB687B617B6909
:103B8000002BEED100BF00BF1837BD4680BD80B509
:103B90008CB004AFF860B9607A603B600023FB61D1
:103BA000BB6A002B05D03B6B002B02D13B68002287
:103BB0001A703B6B052B40F38480002393E07A68F6
:103BC000FB691344FA6813441B78BB61BB69002B83
:103BD00003D1FB690133FB617BE0BB6903F0C003E8
:103BE000002B2FD0BB691B0203F47C537968FA6960
:103BF0000A440132F9680A44127813437B617B69F5
:103C00000133BA689A4219D9FA687B6913441B7860
:103C100003F0C003002B11D13B6B01330293FB6A0D
:103C20000193BB6A00933B687A69B968F868FFF74B
:103C3000AEFF0346002B01D1002354E0FB690233A1
:103C4000FB6146E07A68FB691A44BB69134401339F
:103C5000BA689A4201D8002345E0FB6A002B0BD0DA
:103C6000FA6ABB6A9A4204D23A68FB6A13442E226B
:103C70001A70FB6A0133FB62FA6ABB691344BA6AC1
:103C80009A420CD93A68FB6AD0187A68FB691344E7
:103C90000133FA681344BA6919462EF018F9FA6A22
:103CA000BB691344FB62BA69FB6913440133FB61CE
:103CB000FA6ABB6A9A4204D23A68FB6A1344002249
:103CC0001A707A68FB6913440133BA689A423FF666
:103CD00076AFBB6A002B05D0BB6A013B3A68134440
:103CE00000221A70FB6918462037BD4680BD80B59A
:103CF00088B004AFF860B9607A603B60002302933B
:103D000000230193BB6900933B687A68B968F8683F
:103D1000FFF73DFF034618461037BD4680BD80B50E
:103D200088B002AFF860B9607A60FB70FA687B68AF
:103D300013447B61FA68BB6813443B61082200218D
:103D4000386A2DF031FFBB680B2B01D8002374E0DB
:103D5000BB68B3F5007F01D900236EE07A693B6947
:103D60009A4201D3002368E00023009300237A687D
:103D7000B968F868FFF7BBFF03469AB23B6A1A803E
:103D80003B6A1B88002B01D1002356E03B6A1B884D
:103D900004337A6913447B617A693B699A4201D999
:103DA00000234AE07B69043B1B781B021AB27B6943
:103DB000033B1B781BB213431BB29AB23B6A5A8077
:103DC0007B69023B1B781B021AB27B69013B1B78A3
:103DD0001BB213431BB29AB23B6A9A80FB78002B4A
:103DE00003D03B6A1B88043327E07B6906337B6181
:103DF0007A693B699A4201D900231EE07B69023B44
:103E00001B781B021AB27B69013B1B781BB2134360
:103E10001BB29AB23B6ADA803B6ADB881A467B693E
:103E200013443A699A4201D2002306E03B6A1B8898
:103E30001A463B6ADB8813440A3318461837BD46D6
:103E400080BD000080B58EB002AFF860B9607A60C6
:103E5000FB683B620C237B624FF48C720021786814
:103E60002DF0A2FEBB680B2B01D80023AAE03B6A11
:103E70009B88184616F0B1FC0346012B01D900239C
:103E8000A0E03B6ADB88184616F0A7FC0346BB623D
:103E9000BB6A0A2B10D94D4B1B68022B0ADD4C4B19
:103EA00040F293424B49032005F06CFFB96A4A483F
:103EB00005F0B8FF0A23BB623B6A1B88184616F060
:103EC0008CFC03461A467B681A800023FB6215E0CF
:103ED00007F11403009301237A6AB968F868FFF7C1
:103EE0001EFFF861FB69002B01D100236AE07A6AAA
:103EF000FB6913447B62FB6A0133FB623B6A9B886C
:103F0000184616F06AFC03461A46FB6A9342DFD352
:103F10000023FB6251E007F11403009300237A6A47
:103F2000B968F868FFF7FBFEF861FB69002B01D167
:103F3000002347E07B6818334FF4807200927A6A5E
:103F4000B968F868FFF7D3FE7A6AFB6913447B62AD
:103F50007B8B042B14D1FB8A012B11D13B8B012BC2
:103F60000ED17B680022DA757B6804337A6A043AE2
:103F7000F9680A4412681A607B6801229A7020E08E
:103F80007B8B102B16D1FB8A1C2B13D13B8B012B67
:103F900010D17B680122DA757B68181D7B6A103BA3
:103FA000FA681344102219462DF091FF7B68012214
:103FB0009A7006E0FB6A0133FB62FA6ABB6A9A42B6
:103FC000A9D3012318463037BD4680BDB002002476
:103FD0000090030844590308F85B0308B0B5D2B059
:103FE00002AF07F5A073A3F59A73186007F5A073E5
:103FF000A3F59C73196007F5A073A3F59E731A606F
:1040000007F5A073A3F59A731B685B683033C7F894
:10401000343107F5A073A3F59C731B68022B2DD1D7
:1040200007F5A073A3F59E731B68D3E90023C7E9C6
:104030004A23D7F834311B68C7F83C3119E0D7F868
:104040003C311B68C7F83031D7F83C31D3E9020165
:10405000D7E94A23904271EB030306D2D7F83C31EB
:104060005B689249184600F037FBD7F83031C7F843
:104070003C31D7F83C31002BE1D112E107F5A073B8
:10408000A3F59C731B68072B40F0E4800023C7F85E
:10409000383107F5A073A3F59A731B68986B07F581
:1040A000A073A3F59A731B681B6C07F110021946E5
:1040B000FFF7C8FE034683F00103DBB2002B1ED0DE
:1040C0007B4B1B68002B09DD7A4B40F2C1427A49D9
:1040D000012005F057FE794805F0A4FE07F5A0730E
:1040E000A3F59A731B689A6B07F5A073A3F59A73EF
:1040F0001B681B6C1946104605F0CAFE90E0D7F805
:1041000034311B68C7F83C3185E0D7F83C311B6877
:10411000C7F8303107F5A073A3F598731A88D7F85C
:104120003C311B8A9A4271D1D7F83C315B6893F8D5
:10413000AC3003F00803DBB2002B4AD007F5A073C4
:10414000A3F598739B78002B38D0D7F83C315B6887
:104150009A8D07F5A073A3F598739A82D7F83C312E
:104160005A6807F5A073A3F5987302F11C041D1D8E
:104170000FCD0FC42B6823604D4B1B68022B16DD3F
:104180004C4B40F2CD424C49032005F0FBFDD7F8E3
:104190003C315B68596BD7F83C315B681C3307F1E5
:1041A000100218320093464B464805F03BFED7F804
:1041B0003C315B6818460AF0DDFA1DE0D7F83C3167
:1041C000586807F1100318331A463F4900F084FA83
:1041D00012E0374B1B68002B0EDD364B40F2DA4203
:1041E0003549012005F0CEFDD7F83C315B685B6BAB
:1041F0001946364805F016FED7F83C11D7F83401B9
:10420000FFF788FC0123C7F8383100E000BFD7F87A
:104210003031C7F83C31D7F83C31002B7FF475AF13
:10422000D7F83831002B0DD1214B1B68002B09DD4D
:10423000204B4FF49C622049012005F0A3FD244847
:1042400005F0F0FD07F5A073A3F59A731B68002233
:104250001A6426E007F5A073A3F59C731B68092B6D
:104260001FD1D7F834311B68C7F83C3115E0D7F8B7
:104270003C311B68C7F83031D7F83C315B681549D1
:10428000184600F029FAD7F83C11D7F83401FFF7A7
:1042900041FCD7F83031C7F83C31D7F83C31002B1E
:1042A000E5D100BF07F5A077BD46B0BD245C03088B
:1042B000B00200241090030844590308305C03083E
:1042C000E3F400084C5C03085C5C0308745C0308BE
:1042D0008C5C03089C5C030890B5CBB000AF07F57D
:1042E0009474A4F58E74206007F59470A0F5907016
:1042F0000160194607F59473A3F591731A8007F5C9
:104300009473A3F223130A461A7007F114034FF4AF
:104310008672002118462DF047FC07F59473A3F52B
:1043200091731B88184616F058FA03461A4607F58B
:104330009473A3F58A731A804FF4807016F04DFAC7
:1043400003461A4607F59473A3F58A735A80012031
:1043500016F043FA03461A4607F59473A3F58A73D9
:104360009A800023C7F82031D7F82031C7F82431CC
:1043700054E007F59473A3F590731B681A68D7F897
:10438000243113441B782E2B09D007F59473A3F521
:1043900090731B685B68D7F824219A422FD3D7F813
:1043A0002431DAB2D7F82031DBB2D31AD9B207F50B
:1043B0009473A3F58A72D7F8203113440C330A465C
:1043C0001A70D7F82031013307F11402083313446F
:1043D000181D07F59473A3F590731B681A68D7F836
:1043E0002031D118D7F82421D7F82031D31A1A4612
:1043F0002DF06DFDD7F824310133C7F8203107F5D2
:104400009473A3F590731B685B68D7F824219A42D4
:1044100009D2D7F824310133C7F82431D7F8243131
:10442000FA2BA6D900E000BF07F11402D7F820311B
:104430000833134404330522164918462DF047FD6E
:10444000D7F820310533C7F8203107F59473A3F26C
:1044500023131B78002B09D0D7F82031033B07F535
:104460009472A2F58A7213441C221A73D7F8203171
:1044700003F10C0207F1140107F59473A3F58E7391
:1044800018680AF03BFC0346184607F59677BD46C8
:1044900090BD00BFA85C03082DE9B04388B002AF0F
:1044A000F860B9607A603B6000237B613B681B6801
:1044B000002B04D14D49F86800F00EF917E03B6875
:1044C0005B68002B13D1FB6858683B6819680023B0
:1044D000002207F0FBF802463B685A603B685B68C5
:1044E000002B04D03B685B68414AC3F880203B68DE
:1044F0005B68002B04D13F49F86800F0EDF86FE0ED
:1045000018210120FEF741FD78617B69002B04D161
:104510003949F86800F0E0F862E0FB685B681B6B03
:104520003B613B69002B04D03B691B8A01339AB283
:1045300000E001227B691A82FB685B681A6B7B6969
:104540001A60FB685B687A691A6316F0D7F902464D
:104550000B467968C8170C46054612EB040843EB76
:1045600005097B69C3E902897B69FA685A60FA68C0
:1045700092F8AC3043F0080382F8AC301F4B1B6854
:10458000032B18DD1E4B40F21E521E49042005F07D
:10459000F9FBFB68596BBB685B681C46BB68186815
:1045A0003B681B687A69128A01920093034622468F
:1045B000154805F037FC3B6858687B691A8A97F8FC
:1045C0003030B968FFF788FE034683F00103DBB2A1
:1045D000002B05D03B685B680C49184600F07CF85E
:1045E00000BF1837BD46BDE8B08300BFB05C03080C
:1045F000DD3F0008DC5C0308E85C0308B00200242F
:104600001890030844590308F45C0308185D030874
:1046100080B588B002AF7860396007F10C03396863
:10462000184615F0CAFF386815F0FAFF0346184619
:1046300016F0D3F803461A467B689A857B681C33CC
:104640001A4607F10C0393E8030006F070FF0346D7
:10465000002B03D078680AF08DF819E07B685B685E
:104660001B7E002B03D07B685B680C3302E07B6809
:104670005B6804337B617B685B685A697B685B6855
:104680001B7E07F10C0100937B697868FFF704FF3C
:1046900000BF1837BD4680BD80B584B000AFF8605C
:1046A000B9607A60FB68D3F88030002B06D0FB68D5
:1046B000D3F880307A68B968F8689847FB689B6FD0
:1046C000002B05D0FB689B6F7A68B968F86898473B
:1046D00000BF1037BD4680BD0EB480B595B000AFA9
:1046E000786007F16003FB6007F10C0307F110002D
:1046F000FA6D40210AF0DAFD144B1B68002B0FDD28
:10470000134B40F253521349012005F03BFB7B68E9
:10471000596B7B681A6B07F110030F4805F082FB99
:104720007A6892F8AD3043F0200382F8AD3007F19B
:1047300010031A4600217868FFF7AEFF00BF543718
:10474000BD46BDE8804003B0704700BFB002002402
:104750002890030844590308245D030880B483B0FB
:1047600000AF78607B682F2B04DD7B68392B01DC80
:10477000012300E0002303F00103DBB218460C37ED
:10478000BD465DF8047B704780B487B000AFF86029
:10479000B9607A6000237B617B695A1C7A611A4692
:1047A000FB68134465221A707B695A1C7A611A46A9
:1047B000FB6813447A68D2B21A70BB68B3F5C87F3D
:1047C00001DD002357E0BB68092B07DC7B695A1C1D
:1047D0007A611A46FB68134430221A70BB68632B57
:1047E0001CDDBB68274A82FB03125211DB17D31A68
:1047F000DAB27B69591C79611946FB680B44303287
:10480000D2B21A70BB681F4A82FB03125111DA1729
:104810008A1A642101FB02F29B1ABB60BB68092B58
:104820001DDDBB68184A82FB03129210DB17D31AF6
:10483000DAB27B69591C79611946FB680B44303246
:10484000D2B21A70BA68104B83FB02139910D317B7
:10485000C91A0B469B000B445B00D31ABB60BB68B4
:10486000DAB27B69591C79611946FB680B44303216
:10487000D2B21A707B6918461C37BD465DF8047BBE
:10488000704700BF1F85EB516766666680B485B0D0
:1048900000AF87ED000BD7E90023C7E90223D7E972
:1048A00002014FF000024FF000030A0000231346FC
:1048B00023F00043084A934206D1D7E90223134666
:1048C000002B01D1012300E0002318461437BD4618
:1048D0005DF8047B704700BF0000F07F80B485B0B6
:1048E00000AF87ED000BD7E90023C7E90223D7E922
:1048F00002014FF000024FF000030A0000231346AC
:1049000023F00041D7E902231346002B14BF0123F3
:104910000023DBB20B44064A93428CBF01230023E1
:10492000DBB218461437BD465DF8047B704700BF04
:104930000000F07F0000000080B59EB002AF7861FB
:10494000396187ED020B7A60FB700023BB660023A0
:104950007B6600233B6697ED027BB5EE407BF1EE74
:1049600010FA07D1B14BB24A396978690AF0C6FC2E
:10497000034666E297ED020BFFF788FF0346002B24
:1049800010D097ED027BB5EEC07BF1EE10FA01DDA1
:10499000A84B00E0A84BA64A396978690AF0AEFC3A
:1049A00003464EE297ED020BFFF798FF0346002BFC
:1049B00007D0A24B9E4A396978690AF09FFC0346EA
:1049C0003FE297ED027BB5EEC07BF1EE10FA0DD51C
:1049D00097ED027BB1EE477B87ED027BBB6E5A1CE5
:1049E000BA6670333B442D2203F8582CD7E90223D2
:1049F000C7E912234FF00002914BC7E9142307E0E7
:104A000097ED147BB2EE046B27EE067B87ED147BEB
:104A100097ED027BB2EE046BB4EEC67BF1EE10FABA
:104A20000CDB97ED025B97ED146B85EE067BB2EE27
:104A3000046BB4EEC67BF1EE10FAE1DA07E097ED15
:104A4000146BB2EE045B86EE057B87ED147B97ED6D
:104A5000027BB7EE006BB4EEC67BF1EE10FA0CD819
:104A600097ED025B97ED146B85EE067BB7EE006B5E
:104A7000B4EEC67BF1EE10FAE1D90023FB6697EDA8
:104A8000147BB1EE046B27EE067B87ED167B0AE004
:104A900097ED166BB2EE045B86EE057B87ED167B19
:104AA000FB6E0133FB66FA6E7B689A42F0DB97ED92
:104AB000026B97ED167B36EE077B87ED027B4FF09E
:104AC00000025F4BC7E914230AE097ED147BB2EEB6
:104AD000046B27EE067B87ED147B3B6E01333B6650
:104AE00097ED027BB2EE046BB4EEC67BF1EE10FAEA
:104AF0000CDB97ED025B97ED146B85EE067BB2EE57
:104B0000046BB4EEC67BF1EE10FADEDA0AE097ED44
:104B1000146BB2EE045B86EE057B87ED147B3B6E77
:104B2000013B3B6697ED027BB7EE006BB4EEC67BB4
:104B3000F1EE10FA0CD597ED025B97ED146B85EE54
:104B4000067BB7EE006BB4EEC67BF1EE10FADED456
:104B50003A6E7B689A422DDB7B68012B2ADD97ED4C
:104B6000126B97ED147B86EE075BFB7807F118005C
:104B70007A68B0EE450B2821FFF7DEFE03467B6620
:104B8000BA6E7B6E134407F1180213442B22396E60
:104B90001846FFF7F9FD02467B6E13447B6607F16A
:104BA000180300937B6E274A396978690AF0A6FBDF
:104BB000034646E17B685B423A6E9A422EDC7B6894
:104BC000012B2BDD97ED126B97ED147B86EE075BC7
:104BD000FB7807F118007A68B0EE450B2821FFF743
:104BE000ABFE03467B66BA6E7B6E134407F1180278
:104BF000D0183B6E5B422D221946FFF7C5FD0246D9
:104C00007B6E13447B6607F1180300937B6E0D4A9D
:104C1000396978690AF072FB034612E10023FB66EA
:104C2000D7E91423C7E9162346E000BF305D030827
:104C3000345D0308385D03083C5D0308445D0308E8
:104C40000000F03F485D030897ED025B97ED166B9F
:104C500085EE067BFDEEC77B17EE903A7B647B6E9C
:104C6000002B02DC7B6C002B0CDD7B6CDAB27B6EE4
:104C7000591C7966B96E0B443032D2B270333B4462
:104C800003F8582C7B6C07EE903AB8EEE76B97ED83
:104C9000167B26EE077B97ED026B36EE477B87EDA2
:104CA000027B97ED166BB2EE045B86EE057B87ED1B
:104CB000167BFB6E0133FB6697ED167BB7EE006B40
:104CC000B4EEC67BF1EE10FA04DBBA6E7B6E1344D1
:104CD000272BB9DD7B6E002B18D1BB6E5A1CBA6630
:104CE00070333B44302203F8582C0FE07B6E5A1C83
:104CF0007A6670333B44302203F8582C97ED166BDC
:104D0000B2EE045B86EE057B87ED167B97ED167B96
:104D1000B7EE006BB4EEC67BF1EE10FA04DB7A6EF0
:104D2000BB6E1344272BE1DDBA6E7B6E1344272B39
:104D300009DCBB6E5A1CBA667A6E134470333B446E
:104D40002E2203F8582C0023FB6642A3D3E900234C
:104D5000C7E9162331E097ED025B97ED166B85EE00
:104D6000067BFDEEC77B17EE903A3B643B6CDAB2F4
:104D70007B6E591C7966B96E0B443032D2B27033F7
:104D80003B4403F8582C3B6C07EE903AB8EEE76BC7
:104D900097ED167B26EE077B97ED026B36EE477B91
:104DA00087ED027B97ED166BB2EE045B86EE057B1A
:104DB00087ED167BFB6E0133FB66BA6E7B6E134488
:104DC000272B07DC7A6E7B689A42C4DB02E07B6E9D
:104DD000013B7B66FB78002B0CD07B6E002B09DD42
:104DE000BA6E7B6E1344013B70333B4413F8583C5E
:104DF000302BECD07B6E002B0CDDBA6E7B6E134437
:104E0000013B70333B4413F8583C2E2B02D17B6E90
:104E1000013B7B667A6EBB6E13447B667B6E272BF1
:104E200001DD27237B6607F118027B6E1344002205
:104E30001A7007F11803064A396978690AF05EFAB0
:104E4000034618467037BD4680BD00BFAFF30080F3
:104E5000345D03089A9999999999B93FB0B58CB086
:104E600000AFF860C7E90023534BBB61D7E90023CB
:104E7000C7E90A2300237B6297F84030002B12D049
:104E8000D7E90023002B0EDA7B6A5A1C7A62FA6893
:104E900013442D221A70D7E900230021544261EBFC
:104EA0000305C7E90A4597F84430002B21D00023B9
:104EB0003B6219E0BB6A03F00F03BA691A443B6A0C
:104EC000591C3962796A0B44F9680B4412781A70DC
:104ED000D7E90A014FF000024FF00003020942EA4D
:104EE00001720B09C7E90A23D7E90A231343E1D169
:104EF00025E000233B621EE0D7E90A014FF00A02D9
:104F00004FF00003FBF760FCBB691A443B6A591C75
:104F10003962796A0B44F9680B4412781A70D7E940
:104F20000A014FF00A024FF00003FBF74DFC024666
:104F30000B46C7E90A23D7E90A231343DCD1002330
:104F4000FB6122E07A6AFB691344FA6813441B7818
:104F5000FB757A6A3B6A1A44FB69D31A013BFA680B
:104F60001A44796AFB690B44F9680B4412781A7089
:104F70007A6A3B6A1A44FB69D31A013BFA68134404
:104F8000FA7D1A70FB690133FB613B6A5B08FA69C1
:104F90009A42D7D3D7E90023134306D13B6A5A1C60
:104FA0003A62FA68134430221A703A6A7B6A1344F0
:104FB00018463037BD46B0BD505D030880B586B099
:104FC00000AFF860B9607A603B6000237B6109E064
:104FD0007B695A1C7A617A6813441A78FB68B9684D
:104FE000104698477A693B689A4205D27A687B698D
:104FF00013441B78002BEBD17B6918461837BD464C
:1050000080BD0CB480B584B000AF786039600023F7
:10501000FB6007F11C03BB6007F10803BA6939683C
:10502000786800F009F8F860FB6818461037BD464C
:10503000BDE8804002B070472DE9B043A6B002AF92
:10504000F860B9607A603B600023C7F88C300023B9
:10505000C7F8883083E37A68D7F88C3013441B781C
:10506000252B40F069830023FB670023BB670023E7
:105070007B674FF0FF333B67202387F83F300023E7
:1050800087F86F30D7F88C300133C7F88C307A68E6
:10509000D7F88C3013441B7887F86E3097F86E3051
:1050A000232B0ED1FB6F0133FB67D7F88C30013314
:1050B000C7F88C307A68D7F88C3013441B7887F89F
:1050C0006E3097F86E302D2B10D197F86F3001337A
:1050D00087F86F30D7F88C300133C7F88C307A6896
:1050E000D7F88C3013441B7887F86E3097F86E3001
:1050F000302B27D1302387F83F30D7F88C3001335D
:10510000C7F88C307A68D7F88C3013441B7887F84E
:105110006E3017E07A6F13469B0013445B007B6789
:1051200097F86E207B6F1344303B7B67D7F88C3049
:105130000133C7F88C307A68D7F88C3013441B7869
:1051400087F86E3097F86E301846FFF707FB034676
:10515000002BDFD197F86E302E2B53D1D7F88C303F
:105160000133C7F88C307A68D7F88C3013441B7839
:1051700087F86E3097F86E302A2B13D13B681B6886
:10518000191D3A6811601B683B67D7F88C300133F2
:10519000C7F88C307A68D7F88C3013441B7887F8BE
:1051A0006E302FE000233B6717E03A6F13469B00F9
:1051B00013445B003B6797F86E203B6F1344303B12
:1051C0003B67D7F88C300133C7F88C307A68D7F852
:1051D0008C3013441B7887F86E3097F86E30184681
:1051E000FFF7BCFA0346002BDFD10BE0D7F88C3079
:1051F0000133C7F88C307A68D7F88C3013441B78A9
:1052000087F86E3097F86E30682BEFD097F86E30D5
:105210006C2B21D1BB6F0133BB67D7F88C300133C6
:10522000C7F88C307A68D7F88C3013441B7887F82D
:105230006E3097F86E306C2B0ED1BB6F0133BB67AD
:10524000D7F88C300133C7F88C307A68D7F88C30B7
:1052500013441B7887F86E3097F86E30702B03D1AB
:105260000123FB670123BB6797F86E30642B18D0CE
:1052700097F86E30752B14D097F86E30782B10D0CD
:1052800097F86E30582B0CD097F86E30702B08D0F2
:1052900097F86E30672B04D097F86E30662B40F08D
:1052A0006C8197F86E30642B0CBF0123002387F8C4
:1052B0005F3097F86E30782B07D097F86E30582B08
:1052C00003D097F86E30702B01D1012300E000234A
:1052D00087F85E3097F85E3003F0010387F85E30A0
:1052E000FB6F002B01D0022300E00023BB6597F881
:1052F0006E30672B03D097F86E30662B24D13B6855
:105300001B68073323F0070303F108013A681160B3
:10531000D3E90023C7E910233B6FB3F1FF3F01D16D
:1053200006233B673A6F97F86E30672B0CBF01235B
:105330000023DBB207F1140097ED100B2821FFF7D3
:10534000FBFAC7F8800069E0BB6F022B1CD13B68F9
:105350001B68073323F0070303F108013A68116063
:10536000D3E90023C7E9122307F1140197F85E304F
:10537000019397F85F300093D7E912230846FFF7AF
:105380006DFDC7F8800049E0BB6F012B23D13B685E
:105390001B68191D3A6811601B683B6597F85F3000
:1053A000002B04D03B6DDA171C46154603E03B6D1D
:1053B00000221C46154607F1140197F85E30019350
:1053C00097F85F30009322462B460846FFF746FDCC
:1053D000C7F8800022E03B681B68191D3A6811601D
:1053E0001B687B6597F85F30002B04D07B6DDA1764
:1053F0009846914603E07B6D00229846914607F15E
:10540000140197F85E30019397F85F30009342469D
:105410004B460846FFF722FDC7F880000023C7F877
:10542000843007E07B6F013B7B67D7F88430013322
:10543000C7F88430D7F88420BB6D9A4202D27B6FC4
:10544000002BEFD10023C7F8843011E007F13F02B1
:105450000123B968F868FFF7B1FD0246D7F8883034
:105460001344C7F88830D7F884300133C7F8843044
:1054700097F83F30202B10D197F86F30002B0CD1CC
:10548000D7F880207B6F9A4207D2D7F88420D7F8CC
:10549000803013447A6F9A42D8D8BB6DB74AB96846
:1054A000F868FFF78BFD0246D7F888301344C7F839
:1054B00088300023C7F8843011E007F13F02012350
:1054C000B968F868FFF77AFD0246D7F888301344C8
:1054D000C7F88830D7F884300133C7F8843097F89C
:1054E0003F30302B0CD1D7F880207B6F9A4207D207
:1054F000D7F88420D7F8803013447A6F9A42DCD8EA
:1055000007F11402D7F88030B968F868FFF756FD44
:105510000246D7F888301344C7F888300023C7F80C
:10552000843011E007F13F020123B968F868FFF702
:1055300045FD0246D7F888301344C7F88830D7F8BD
:1055400084300133C7F8843097F83F30202B40F087
:10555000EA8097F86F30002B00F0E580D7F88020C4
:105560007B6F9A4280F0DF80D7F88420D7F88030B4
:1055700013447A6F9A42D5D8D5E097F86E306D2BE8
:1055800003D097F86E304D2B28D13B681B68191D4E
:105590003A6811601B683B6697F86E306D2B03D13B
:1055A000FB68B968222098473B6E3A68B968F8688A
:1055B00098470246D7F888301344C7F8883097F8E0
:1055C0006E306D2B40F0B180D7F888300233C7F8C9
:1055D0008830FB68B96822209847A6E097F86E30BB
:1055E000632B12D13B681B68191D3A6811601B6858
:1055F0007B667B6EDAB2FB68B96810469847D7F8CD
:1056000088300133C7F8883090E097F86E30732BFC
:105610006BD13B681B68191D3A6811601B68BB663B
:105620003B6FB3F1FF3F09D1BB6E002B04D0B86EC6
:10563000FAF7B6FE034600E000233B670023C7F8F5
:10564000843011E007F13F020123B968F868FFF7E1
:10565000B5FC0246D7F888301344C7F88830D7F82D
:1056600084300133C7F8843097F86F30002B0AD1AB
:105670003A6F7B6F9A4206D2D7F884203B6F13446F
:105680007A6F9A42DED83B6FBA6EB968F868FFF756
:1056900095FC0246D7F888301344C7F888300023B9
:1056A000C7F8843011E007F13F020123B968F868B8
:1056B000FFF784FC0246D7F888301344C7F88830D7
:1056C000D7F884300133C7F8843097F86F30002B57
:1056D0002CD03A6F7B6F9A4228D2D7F884203B6F48
:1056E00013447A6F9A42DED820E097F86E30252B6B
:1056F00009D1FB68B96825209847D7F8883001336D
:10570000C7F8883012E0FB68B9682520984797F8F9
:105710006E20FB68B96810469847D7F88830023386
:10572000C7F8883002E000BF00E000BFD7F88C3037
:105730000133C7F88C3012E07A68D7F88C30134404
:105740001A78FB68B96810469847D7F88830013353
:10575000C7F88830D7F88C300133C7F88C307A68B6
:10576000D7F88C3013441B78002B7FF474ACD7F837
:10577000883018469037BD46BDE8B083645D0308A5
:1057800080B586B000AFF860B9607A60082101206A
:10579000FDF7FBFB78617B69002B13D0FB689B68EE
:1057A0007968B868984702467B691A607B69FA682D
:1057B0005A607B691B68002B04D1786928F02CFFA4
:1057C00000237B617B6918461837BD4680BD80B5D4
:1057D00082B000AF78607B68002B09D07B685B6883
:1057E000DB687A68126810469847786828F014FFDA
:1057F00000BF0837BD4680BD80B584B000AFF860FB
:10580000B9607A607868FAF7CBFD0246BB689342CC
:1058100019D2BA687968F8682CF0DBF90346002BD6
:1058200011D1BB68002B0CD07A68BB6813441B787D
:105830002F2B06D0BB68013B7A6813441B782F2BB3
:1058400001D1012300E0002318461037BD4680BD7A
:1058500080B588B000AFF860B9607A60F868FAF790
:105860009FFDB8617A68B968F86816F091FA034646
:10587000002B01D0012317E00023FB610CE07A69C3
:10588000B969F868FFF7B8FF0346002B01D004237D
:105890000AE0FB690133FB61F86916F065FA78618B
:1058A0007B69002BEBD1002318462037BD4680BD15
:1058B00080B5CCB002AF07F59473A3F58E73186072
:1058C00007F59473A3F59073196007F59473A3F526
:1058D00092731A6007F59473A3F58E731868FAF73C
:1058E0005FFDC7F81C0107F59473A3F58A730022C6
:1058F0001A700023C7F8203165E007F59473A3F50B
:105900008E73D7F81821D7F81C111868FFF774FFA9
:105910000346002B4FD0D7F81C310133D7F818219C
:105920001344C7F814312F21D7F814012CF044F98F
:10593000C7F82401D7F82431002B09D1D7F8140176
:10594000FAF72EFD0246D7F814311344C7F8243174
:10595000D7F82421D7F81431D21A07F19400D7F8D8
:10596000143100931346204A802109F0C7FC00231C
:1059700087F8133107F1140207F194031146184612
:10598000FAF7AEFC0346002B17D007F59473A3F586
:10599000927207F1940007F59473A3F590731B6856
:1059A0001168984707F1940207F11403114618464D
:1059B0002CF085FA02E000BF00E000BFD7F82031EC
:1059C0000133C7F82031D7F8200116F0CDF9C7F818
:1059D0001801D7F81831002B8FD100BF00BF07F591
:1059E0009477BD4680BD00BF485D030880B586B092
:1059F00000AF786039600023FB6007F10C030022E0
:105A00001946786816F0C4F9786100233B617B6918
:105A1000002B01D1002315E03B6803F00203002BAB
:105A200001D000230EE00C210120FDF7AEFA386111
:105A30003B69002B05D0FA683B695A603B697A697B
:105A40001A603B6918461837BD4680BD80B582B0E4
:105A500000AF78607B68002B02D0786828F0DCFD0E
:105A600000BF0837BD4680BD80B586B000AFF86086
:105A7000B9607A60FB687B617B699A687B681A44CD
:105A80007B695B689A4205D97B695A687B699B6828
:105A9000D31A7B607B691A687B699B6813447A68B8
:105AA0001946B8682CF013FA7B699A687B681A4427
:105AB0007B699A607B6818461837BD4680BD80B404
:105AC00085B000AFF860B9607A60002318461437DB
:105AD000BD465DF8047B704780B485B000AF786048
